{
  "contractName": "Manitto",
  "abi": [
    {
      "inputs": [],
      "payable": false,
      "stateMutability": "nonpayable",
      "type": "constructor"
    },
    {
      "constant": false,
      "inputs": [
        {
          "name": "userName",
          "type": "string"
        },
        {
          "name": "date",
          "type": "string"
        },
        {
          "name": "likeCount",
          "type": "uint8"
        },
        {
          "name": "best",
          "type": "uint8"
        }
      ],
      "name": "insertRanking",
      "outputs": [],
      "payable": false,
      "stateMutability": "nonpayable",
      "type": "function"
    },
    {
      "constant": true,
      "inputs": [
        {
          "name": "index",
          "type": "uint256"
        }
      ],
      "name": "getRanking",
      "outputs": [
        {
          "name": "userName",
          "type": "string"
        },
        {
          "name": "date",
          "type": "string"
        },
        {
          "name": "likeCount",
          "type": "uint8"
        },
        {
          "name": "best",
          "type": "uint8"
        }
      ],
      "payable": false,
      "stateMutability": "view",
      "type": "function"
    },
    {
      "constant": true,
      "inputs": [],
      "name": "getIndex",
      "outputs": [
        {
          "name": "index",
          "type": "uint256"
        }
      ],
      "payable": false,
      "stateMutability": "view",
      "type": "function"
    }
  ],
  "bytecode": "0x608060405234801561001057600080fd5b50336000806101000a81548173ffffffffffffffffffffffffffffffffffffffff021916908373ffffffffffffffffffffffffffffffffffffffff1602179055506106ae806100606000396000f300608060405260043610610057576000357c0100000000000000000000000000000000000000000000000000000000900463ffffffff16806322c1062b1461005c57806381045ead14610125578063bea2dc1414610150575b600080fd5b34801561006857600080fd5b50610123600480360381019080803590602001908201803590602001908080601f0160208091040260200160405190810160405280939291908181526020018383808284378201915050505050509192919290803590602001908201803590602001908080601f0160208091040260200160405190810160405280939291908181526020018383808284378201915050505050509192919290803560ff169060200190929190803560ff16906020019092919050505061027c565b005b34801561013157600080fd5b5061013a6103be565b6040518082815260200191505060405180910390f35b34801561015c57600080fd5b5061017b600480360381019080803590602001909291905050506103cb565b6040518080602001806020018560ff1660ff1681526020018460ff1660ff168152602001838103835287818151815260200191508051906020019080838360005b838110156101d75780820151818401526020810190506101bc565b50505050905090810190601f1680156102045780820380516001836020036101000a031916815260200191505b50838103825286818151815260200191508051906020019080838360005b8381101561023d578082015181840152602081019050610222565b50505050905090810190601f16801561026a5780820380516001836020036101000a031916815260200191505b50965050505050505060405180910390f35b6102846105ae565b6000809054906101000a900473ffffffffffffffffffffffffffffffffffffffff1673ffffffffffffffffffffffffffffffffffffffff163373ffffffffffffffffffffffffffffffffffffffff161415156102df576103b7565b6080604051908101604052808681526020018581526020018460ff1681526020018360ff1681525090506001819080600181540180825580915050906001820390600052602060002090600302016000909192909190915060008201518160000190805190602001906103539291906105dd565b5060208201518160010190805190602001906103709291906105dd565b5060408201518160020160006101000a81548160ff021916908360ff16021790555060608201518160020160016101000a81548160ff021916908360ff1602179055505050505b5050505050565b6000600180549050905090565b6060806000806001858154811015156103e057fe5b90600052602060002090600302016000018054600181600116156101000203166002900480601f0160208091040260200160405190810160405280929190818152602001828054600181600116156101000203166002900480156104855780601f1061045a57610100808354040283529160200191610485565b820191906000526020600020905b81548152906001019060200180831161046857829003601f168201915b5050505050935060018581548110151561049b57fe5b90600052602060002090600302016001018054600181600116156101000203166002900480601f0160208091040260200160405190810160405280929190818152602001828054600181600116156101000203166002900480156105405780601f1061051557610100808354040283529160200191610540565b820191906000526020600020905b81548152906001019060200180831161052357829003601f168201915b5050505050925060018581548110151561055657fe5b906000526020600020906003020160020160009054906101000a900460ff16915060018581548110151561058657fe5b906000526020600020906003020160020160019054906101000a900460ff1690509193509193565b6080604051908101604052806060815260200160608152602001600060ff168152602001600060ff1681525090565b828054600181600116156101000203166002900490600052602060002090601f016020900481019282601f1061061e57805160ff191683800117855561064c565b8280016001018555821561064c579182015b8281111561064b578251825591602001919060010190610630565b5b509050610659919061065d565b5090565b61067f91905b8082111561067b576000816000905550600101610663565b5090565b905600a165627a7a72305820304c065ec4dfe813ca162ea1241f3549268e823e206b6844fb00991c4c01ff040029",
  "source": "pragma solidity >=0.4.22 <0.6.0;\r\ncontract Manitto {\r\n\r\n    \r\n    struct Manittoranking {\r\n        string userName;\r\n        string date;\r\n        uint8 likeCount;\r\n        uint8 best;\r\n    }\r\n    \r\n    address manittoOwner;\r\n    Manittoranking[] ranking;\r\n\r\n    constructor() public {\r\n        manittoOwner=msg.sender;\r\n    }\r\n\r\n    function insertRanking\r\n    (\r\n    string memory userName,\r\n    string memory date,\r\n    uint8 likeCount,\r\n    uint8 best\r\n    ) public {\r\n        if (msg.sender != manittoOwner) return;\r\n        Manittoranking memory tempRanking=Manittoranking(userName,date,likeCount,best);\r\n        ranking.push(tempRanking);\r\n    }\r\n    \r\n    function getRanking (uint index)\r\n    public view returns(\r\n        string memory userName,\r\n        string memory date,\r\n        uint8 likeCount, \r\n        uint8 best)\r\n    {\r\n       userName=ranking[index].userName;\r\n       date=ranking[index].date;\r\n       likeCount=ranking[index].likeCount;\r\n       best=ranking[index].best;\r\n       \r\n    }\r\n\r\n   function getIndex() public view returns(\r\n        uint256 index)\r\n    {\r\n        index=ranking.length;\r\n    }\r\n\r\n    \r\n}\r\n",
  "sourcePath": "C:\\dev\\node01\\manitto\\contracts\\manitto.sol",
  "compiler": {
    "name": "solc",
    "version": "0.4.25+commit.59dbf8f1.Emscripten.clang"
  },
  "schemaVersion": "2.0.2",
  "updatedAt": "2019-11-24T06:06:59.139Z"
}